{
  "contractName": "ERC721Connector",
  "abi": [
    {
      "inputs": [
        {
          "internalType": "string",
          "name": "name",
          "type": "string"
        },
        {
          "internalType": "string",
          "name": "symbol",
          "type": "string"
        }
      ],
      "stateMutability": "nonpayable",
      "type": "constructor"
    },
    {
      "anonymous": false,
      "inputs": [
        {
          "indexed": false,
          "internalType": "address",
          "name": "from",
          "type": "address"
        },
        {
          "indexed": false,
          "internalType": "address",
          "name": "to",
          "type": "address"
        },
        {
          "indexed": false,
          "internalType": "uint256",
          "name": "tokenId",
          "type": "uint256"
        }
      ],
      "name": "Transfer",
      "type": "event"
    },
    {
      "inputs": [
        {
          "internalType": "address",
          "name": "_owner",
          "type": "address"
        }
      ],
      "name": "balanceOf",
      "outputs": [
        {
          "internalType": "uint256",
          "name": "",
          "type": "uint256"
        }
      ],
      "stateMutability": "view",
      "type": "function"
    },
    {
      "inputs": [],
      "name": "getName",
      "outputs": [
        {
          "internalType": "string",
          "name": "",
          "type": "string"
        }
      ],
      "stateMutability": "view",
      "type": "function"
    },
    {
      "inputs": [],
      "name": "getSymbol",
      "outputs": [
        {
          "internalType": "string",
          "name": "",
          "type": "string"
        }
      ],
      "stateMutability": "view",
      "type": "function"
    },
    {
      "inputs": [
        {
          "internalType": "uint256",
          "name": "_tokenId",
          "type": "uint256"
        }
      ],
      "name": "ownerOf",
      "outputs": [
        {
          "internalType": "address",
          "name": "",
          "type": "address"
        }
      ],
      "stateMutability": "view",
      "type": "function"
    },
    {
      "inputs": [
        {
          "internalType": "uint256",
          "name": "index",
          "type": "uint256"
        }
      ],
      "name": "tokenByIndex",
      "outputs": [
        {
          "internalType": "uint256",
          "name": "",
          "type": "uint256"
        }
      ],
      "stateMutability": "view",
      "type": "function"
    },
    {
      "inputs": [
        {
          "internalType": "address",
          "name": "owner",
          "type": "address"
        },
        {
          "internalType": "uint256",
          "name": "index",
          "type": "uint256"
        }
      ],
      "name": "tokenOfOwnerByIndex",
      "outputs": [
        {
          "internalType": "uint256",
          "name": "",
          "type": "uint256"
        }
      ],
      "stateMutability": "view",
      "type": "function"
    },
    {
      "inputs": [],
      "name": "totalSupply",
      "outputs": [
        {
          "internalType": "uint256",
          "name": "",
          "type": "uint256"
        }
      ],
      "stateMutability": "view",
      "type": "function"
    },
    {
      "inputs": [
        {
          "internalType": "address",
          "name": "_from",
          "type": "address"
        },
        {
          "internalType": "address",
          "name": "_to",
          "type": "address"
        },
        {
          "internalType": "uint256",
          "name": "_tokenId",
          "type": "uint256"
        }
      ],
      "name": "transferFrom",
      "outputs": [],
      "stateMutability": "nonpayable",
      "type": "function"
    }
  ],
  "bytecode": "0x60806040523480156200001157600080fd5b50604051620009e8380380620009e88339810160408190526200003491620001e1565b8151829082906200004d9060009060208501906200006e565b508051620000639060019060208401906200006e565b505050505062000288565b8280546200007c906200024b565b90600052602060002090601f016020900481019282620000a05760008555620000eb565b82601f10620000bb57805160ff1916838001178555620000eb565b82800160010185558215620000eb579182015b82811115620000eb578251825591602001919060010190620000ce565b50620000f9929150620000fd565b5090565b5b80821115620000f95760008155600101620000fe565b634e487b7160e01b600052604160045260246000fd5b600082601f8301126200013c57600080fd5b81516001600160401b038082111562000159576200015962000114565b604051601f8301601f19908116603f0116810190828211818310171562000184576200018462000114565b81604052838152602092508683858801011115620001a157600080fd5b600091505b83821015620001c55785820183015181830184015290820190620001a6565b83821115620001d75760008385830101525b9695505050505050565b60008060408385031215620001f557600080fd5b82516001600160401b03808211156200020d57600080fd5b6200021b868387016200012a565b935060208501519150808211156200023257600080fd5b5062000241858286016200012a565b9150509250929050565b600181811c908216806200026057607f821691505b602082108114156200028257634e487b7160e01b600052602260045260246000fd5b50919050565b61075080620002986000396000f3fe608060405234801561001057600080fd5b50600436106100885760003560e01c80632f745c591161005b5780632f745c59146100da5780634f6ccce7146100ed5780636352211e1461010057806370a082311461012b57600080fd5b8063150704011461008d57806317d7de7c146100ab57806318160ddd146100b357806323b872dd146100c5575b600080fd5b61009561013e565b6040516100a29190610572565b60405180910390f35b6100956101d0565b6005545b6040519081526020016100a2565b6100d86100d33660046105e3565b6101df565b005b6100b76100e836600461061f565b6101ef565b6100b76100fb366004610649565b61028a565b61011361010e366004610649565b610301565b6040516001600160a01b0390911681526020016100a2565b6100b7610139366004610662565b61036c565b60606001805461014d90610684565b80601f016020809104026020016040519081016040528092919081815260200182805461017990610684565b80156101c65780601f1061019b576101008083540402835291602001916101c6565b820191906000526020600020905b8154815290600101906020018083116101a957829003601f168201915b5050505050905090565b60606000805461014d90610684565b6101ea8383836103eb565b505050565b60006101fa8361036c565b821061024d5760405162461bcd60e51b815260206004820152601c60248201527f6f776e657220696e646578206973206f7574206f6620626f756e64730000000060448201526064015b60405180910390fd5b6001600160a01b0383166000908152600760205260409020805483908110610277576102776106bf565b9060005260206000200154905092915050565b600061029560055490565b82106102dc5760405162461bcd60e51b8152602060048201526016602482015275696e646578206973206f7574206f6620626f756e647360501b6044820152606401610244565b600582815481106102ef576102ef6106bf565b90600052602060002001549050919050565b6000818152600260205260408120546001600160a01b0316806103665760405162461bcd60e51b815260206004820152601c60248201527f517565727920666f72206e6f6e2d6578697374656e74206f776e6572000000006044820152606401610244565b92915050565b60006001600160a01b0382166103cf5760405162461bcd60e51b815260206004820152602260248201527f4f776e657220717565727920666f72206e6f6e2d6578697374656e7420746f6b60448201526132b760f11b6064820152608401610244565b506001600160a01b031660009081526003602052604090205490565b6001600160a01b0382166104385760405162461bcd60e51b81526020600482015260146024820152730416464726573732063616e206e6f7420626520360641b6044820152606401610244565b826001600160a01b031661044b82610301565b6001600160a01b0316146104a15760405162461bcd60e51b815260206004820152601e60248201527f4164647265737320646f6573206e6f74206f776e2074686520746f6b656e00006044820152606401610244565b6001600160a01b03831660009081526003602052604081208054600192906104ca9084906106eb565b90915550506001600160a01b03821660009081526003602052604081208054600192906104f8908490610702565b909155505060008181526002602090815260409182902080546001600160a01b0319166001600160a01b0386811691821790925583519187168252918101919091529081018290527fddf252ad1be2c89b69c2b068fc378daa952ba7f163c4a11628f55a4df523b3ef9060600160405180910390a1505050565b600060208083528351808285015260005b8181101561059f57858101830151858201604001528201610583565b818111156105b1576000604083870101525b50601f01601f1916929092016040019392505050565b80356001600160a01b03811681146105de57600080fd5b919050565b6000806000606084860312156105f857600080fd5b610601846105c7565b925061060f602085016105c7565b9150604084013590509250925092565b6000806040838503121561063257600080fd5b61063b836105c7565b946020939093013593505050565b60006020828403121561065b57600080fd5b5035919050565b60006020828403121561067457600080fd5b61067d826105c7565b9392505050565b600181811c9082168061069857607f821691505b602082108114156106b957634e487b7160e01b600052602260045260246000fd5b50919050565b634e487b7160e01b600052603260045260246000fd5b634e487b7160e01b600052601160045260246000fd5b6000828210156106fd576106fd6106d5565b500390565b60008219821115610715576107156106d5565b50019056fea264697066735822122061bd1a5675745717a3648fc11c8e8aeb0cf213162d0a51daba0583de07ec5b1c64736f6c634300080c0033",
  "immutableReferences": {},
  "source": "// SPDX-License-Identifier: MIT\n\npragma solidity ^0.8.0;\n\nimport './ERC721Metadata.sol';\nimport './ERC721Enumerable.sol';\n\ncontract ERC721Connector is ERC721Metadata, ERC721Enumerable {\n    // We deploy connector right away\n    // we want to carry the metadata info over\n    constructor(string memory name, string memory symbol) ERC721Metadata(name, symbol) {\n\n    }\n}",
  "sourcePath": "/Users/n.timisela/projects/trials/nft-marketplace/src/contracts/ERC721Connector.sol",
  "compiler": {
    "name": "solc",
    "version": "0.8.12+commit.f00d7308.Emscripten.clang"
  },
  "schemaVersion": "3.3.4",
  "updatedAt": "2022-02-19T15:27:51.213Z",
  "devdoc": {
    "kind": "dev",
    "methods": {
      "balanceOf(address)": {
        "details": "NFTs assigned to the zero address are considered invalid, and this  function throws for queries about the zero address.",
        "params": {
          "_owner": "An address for whom to query the balance"
        },
        "returns": {
          "_0": "The number of NFTs owned by `_owner`, possibly"
        }
      },
      "ownerOf(uint256)": {
        "details": "NFTs assigned to zero address are considered invalid, and queries  about them do throw.",
        "params": {
          "_tokenId": "The identifier for an NFT"
        },
        "returns": {
          "_0": "The address of the owner of the NFT"
        }
      }
    },
    "version": 1
  },
  "userdoc": {
    "kind": "user",
    "methods": {
      "balanceOf(address)": {
        "notice": "Count all NFTs assigned to an owner"
      },
      "ownerOf(uint256)": {
        "notice": "Find the owner of an NFT"
      }
    },
    "version": 1
  }
}