{
  "contractName": "ERC721Connector",
  "abi": [
    {
      "inputs": [
        {
          "internalType": "string",
          "name": "name",
          "type": "string"
        },
        {
          "internalType": "string",
          "name": "symbol",
          "type": "string"
        }
      ],
      "stateMutability": "nonpayable",
      "type": "constructor"
    },
    {
      "anonymous": false,
      "inputs": [
        {
          "indexed": false,
          "internalType": "address",
          "name": "from",
          "type": "address"
        },
        {
          "indexed": false,
          "internalType": "address",
          "name": "to",
          "type": "address"
        },
        {
          "indexed": false,
          "internalType": "uint256",
          "name": "tokenId",
          "type": "uint256"
        }
      ],
      "name": "Transfer",
      "type": "event"
    },
    {
      "inputs": [
        {
          "internalType": "address",
          "name": "_owner",
          "type": "address"
        }
      ],
      "name": "balanceOf",
      "outputs": [
        {
          "internalType": "uint256",
          "name": "",
          "type": "uint256"
        }
      ],
      "stateMutability": "view",
      "type": "function"
    },
    {
      "inputs": [],
      "name": "getName",
      "outputs": [
        {
          "internalType": "string",
          "name": "",
          "type": "string"
        }
      ],
      "stateMutability": "view",
      "type": "function"
    },
    {
      "inputs": [],
      "name": "getSymbol",
      "outputs": [
        {
          "internalType": "string",
          "name": "",
          "type": "string"
        }
      ],
      "stateMutability": "view",
      "type": "function"
    },
    {
      "inputs": [
        {
          "internalType": "uint256",
          "name": "_tokenId",
          "type": "uint256"
        }
      ],
      "name": "ownerOf",
      "outputs": [
        {
          "internalType": "address",
          "name": "",
          "type": "address"
        }
      ],
      "stateMutability": "view",
      "type": "function"
    }
  ],
  "bytecode": "0x608060405234801561001057600080fd5b506040516105ce3803806105ce83398101604081905261002f916101bf565b815182908290610046906002906020850190610064565b50805161005a906003906020840190610064565b505050505061025d565b82805461007090610222565b90600052602060002090601f01602090048101928261009257600085556100d8565b82601f106100ab57805160ff19168380011785556100d8565b828001600101855582156100d8579182015b828111156100d85782518255916020019190600101906100bd565b506100e49291506100e8565b5090565b5b808211156100e457600081556001016100e9565b634e487b7160e01b600052604160045260246000fd5b600082601f83011261012457600080fd5b81516001600160401b038082111561013e5761013e6100fd565b604051601f8301601f19908116603f01168101908282118183101715610166576101666100fd565b8160405283815260209250868385880101111561018257600080fd5b600091505b838210156101a45785820183015181830184015290820190610187565b838211156101b55760008385830101525b9695505050505050565b600080604083850312156101d257600080fd5b82516001600160401b03808211156101e957600080fd5b6101f586838701610113565b9350602085015191508082111561020b57600080fd5b5061021885828601610113565b9150509250929050565b600181811c9082168061023657607f821691505b6020821081141561025757634e487b7160e01b600052602260045260246000fd5b50919050565b6103628061026c6000396000f3fe608060405234801561001057600080fd5b506004361061004c5760003560e01c8063150704011461005157806317d7de7c1461006f5780636352211e1461007757806370a08231146100a2575b600080fd5b6100596100c3565b6040516100669190610253565b60405180910390f35b610059610155565b61008a6100853660046102a8565b610164565b6040516001600160a01b039091168152602001610066565b6100b56100b03660046102c1565b6101d4565b604051908152602001610066565b6060600380546100d2906102f1565b80601f01602080910402602001604051908101604052809291908181526020018280546100fe906102f1565b801561014b5780601f106101205761010080835404028352916020019161014b565b820191906000526020600020905b81548152906001019060200180831161012e57829003601f168201915b5050505050905090565b6060600280546100d2906102f1565b6000818152602081905260408120546001600160a01b0316806101ce5760405162461bcd60e51b815260206004820152601c60248201527f517565727920666f72206e6f6e2d6578697374656e74206f776e65720000000060448201526064015b60405180910390fd5b92915050565b60006001600160a01b0382166102375760405162461bcd60e51b815260206004820152602260248201527f4f776e657220717565727920666f72206e6f6e2d6578697374656e7420746f6b60448201526132b760f11b60648201526084016101c5565b506001600160a01b031660009081526001602052604090205490565b600060208083528351808285015260005b8181101561028057858101830151858201604001528201610264565b81811115610292576000604083870101525b50601f01601f1916929092016040019392505050565b6000602082840312156102ba57600080fd5b5035919050565b6000602082840312156102d357600080fd5b81356001600160a01b03811681146102ea57600080fd5b9392505050565b600181811c9082168061030557607f821691505b6020821081141561032657634e487b7160e01b600052602260045260246000fd5b5091905056fea264697066735822122017ab3719ef624f4962e2e03b0c61ac64a0cfae1791c0127b12181cb5a7d60d4764736f6c634300080b0033",
  "immutableReferences": {},
  "source": "// SPDX-License-Identifier: MIT\n\npragma solidity ^0.8.0;\n\nimport './ERC721.sol';\nimport './ERC721Metadata.sol';\n\ncontract ERC721Connector is ERC721, ERC721Metadata {\n    // We deploy connector right away\n    // we want to carry the metadata info over\n    constructor(string memory name, string memory symbol) ERC721Metadata(name, symbol) {\n\n    }\n}",
  "sourcePath": "/Users/n.timisela/projects/trials/nft-marketplace/src/contracts/ERC721Connector.sol",
  "compiler": {
    "name": "solc",
    "version": "0.8.11+commit.d7f03943.Emscripten.clang"
  },
  "schemaVersion": "3.3.4",
  "updatedAt": "2022-02-12T13:10:18.935Z",
  "devdoc": {
    "kind": "dev",
    "methods": {
      "balanceOf(address)": {
        "details": "NFTs assigned to the zero address are considered invalid, and this  function throws for queries about the zero address.",
        "params": {
          "_owner": "An address for whom to query the balance"
        },
        "returns": {
          "_0": "The number of NFTs owned by `_owner`, possibly "
        }
      },
      "ownerOf(uint256)": {
        "details": "NFTs assigned to zero address are considered invalid, and queries  about them do throw.",
        "params": {
          "_tokenId": "The identifier for an NFT"
        },
        "returns": {
          "_0": "The address of the owner of the NFT"
        }
      }
    },
    "version": 1
  },
  "userdoc": {
    "kind": "user",
    "methods": {
      "balanceOf(address)": {
        "notice": "Count all NFTs assigned to an owner"
      },
      "ownerOf(uint256)": {
        "notice": "Find the owner of an NFT"
      }
    },
    "version": 1
  }
}