{
  "contractName": "ERC721",
  "abi": [
    {
      "anonymous": false,
      "inputs": [
        {
          "indexed": false,
          "internalType": "address",
          "name": "from",
          "type": "address"
        },
        {
          "indexed": false,
          "internalType": "address",
          "name": "to",
          "type": "address"
        },
        {
          "indexed": false,
          "internalType": "uint256",
          "name": "tokenId",
          "type": "uint256"
        }
      ],
      "name": "Transfer",
      "type": "event"
    },
    {
      "inputs": [
        {
          "internalType": "address",
          "name": "_owner",
          "type": "address"
        }
      ],
      "name": "balanceOf",
      "outputs": [
        {
          "internalType": "uint256",
          "name": "",
          "type": "uint256"
        }
      ],
      "stateMutability": "view",
      "type": "function"
    },
    {
      "inputs": [
        {
          "internalType": "uint256",
          "name": "_tokenId",
          "type": "uint256"
        }
      ],
      "name": "ownerOf",
      "outputs": [
        {
          "internalType": "address",
          "name": "",
          "type": "address"
        }
      ],
      "stateMutability": "view",
      "type": "function"
    },
    {
      "inputs": [
        {
          "internalType": "address",
          "name": "_from",
          "type": "address"
        },
        {
          "internalType": "address",
          "name": "_to",
          "type": "address"
        },
        {
          "internalType": "uint256",
          "name": "_tokenId",
          "type": "uint256"
        }
      ],
      "name": "transferFrom",
      "outputs": [],
      "stateMutability": "nonpayable",
      "type": "function"
    }
  ],
  "bytecode": "0x608060405234801561001057600080fd5b50610442806100206000396000f3fe608060405234801561001057600080fd5b50600436106100415760003560e01c806323b872dd146100465780636352211e1461005b57806370a082311461008b575b600080fd5b610059610054366004610350565b6100ac565b005b61006e61006936600461038c565b6100bc565b6040516001600160a01b0390911681526020015b60405180910390f35b61009e6100993660046103a5565b61012c565b604051908152602001610082565b6100b78383836101ab565b505050565b6000818152602081905260408120546001600160a01b0316806101265760405162461bcd60e51b815260206004820152601c60248201527f517565727920666f72206e6f6e2d6578697374656e74206f776e65720000000060448201526064015b60405180910390fd5b92915050565b60006001600160a01b03821661018f5760405162461bcd60e51b815260206004820152602260248201527f4f776e657220717565727920666f72206e6f6e2d6578697374656e7420746f6b60448201526132b760f11b606482015260840161011d565b506001600160a01b031660009081526001602052604090205490565b6001600160a01b0382166101f85760405162461bcd60e51b81526020600482015260146024820152730416464726573732063616e206e6f7420626520360641b604482015260640161011d565b826001600160a01b031661020b826100bc565b6001600160a01b0316146102615760405162461bcd60e51b815260206004820152601e60248201527f4164647265737320646f6573206e6f74206f776e2074686520746f6b656e0000604482015260640161011d565b6001600160a01b0383166000908152600160208190526040822080549192909161028c9084906103dd565b90915550506001600160a01b038216600090815260016020819052604082208054919290916102bc9084906103f4565b90915550506000818152602081815260409182902080546001600160a01b0319166001600160a01b0386811691821790925583519187168252918101919091529081018290527fddf252ad1be2c89b69c2b068fc378daa952ba7f163c4a11628f55a4df523b3ef9060600160405180910390a1505050565b80356001600160a01b038116811461034b57600080fd5b919050565b60008060006060848603121561036557600080fd5b61036e84610334565b925061037c60208501610334565b9150604084013590509250925092565b60006020828403121561039e57600080fd5b5035919050565b6000602082840312156103b757600080fd5b6103c082610334565b9392505050565b634e487b7160e01b600052601160045260246000fd5b6000828210156103ef576103ef6103c7565b500390565b60008219821115610407576104076103c7565b50019056fea2646970667358221220c79ac690747d5f5ce6f6af91648455aac254fa13e4a7a2517f44462090101a8164736f6c634300080c0033",
  "immutableReferences": {},
  "source": "// SPDX-License-Identifier: MIT\npragma solidity ^0.8.0;\n\n    /*\n    Building out the minting function:\n        a. NFT to point to an address\n        b. Keep track of the token ID's\n        c. Keep track of the token owner addresses to token ids\n        d. Keep track of how many tokens an owner address has\n        e. Create an event that emits:\n            Transfer log - contract address, where it is being minted to, the id\n    */\n\ncontract ERC721 {\n    uint constant NEW_TOKEN = 1;\n\n    event Transfer(\n        address from,\n        address to,\n        uint256 tokenId\n    );\n\n    // Mapping in solidity creates a hash table of key pair values\n    // Mapping from token id to the owner\n    mapping(uint => address) private _tokenOwner;\n\n    // Mapping from owner to number of owned tokens\n    mapping(address => uint256) private _ownedTokens;\n\n    // Mapping token id to approved addresses\n    mapping(uint256 => address) private _tokenApprovals;\n\n    /// @notice Count all NFTs assigned to an owner\n    /// @dev NFTs assigned to the zero address are considered invalid, and this\n    ///  function throws for queries about the zero address.\n    /// @param _owner An address for whom to query the balance\n    /// @return The number of NFTs owned by `_owner`, possibly\n    function balanceOf(address _owner) public view returns(uint256) {\n        require(_owner != address(0), 'Owner query for non-existent token');\n\n        // return the token count of the _owner input\n        return _ownedTokens[_owner];\n    }\n\n    /// @notice Find the owner of an NFT\n    /// @dev NFTs assigned to zero address are considered invalid, and queries\n    ///  about them do throw.\n    /// @param _tokenId The identifier for an NFT\n    /// @return The address of the owner of the NFT\n    function ownerOf(uint256 _tokenId) public view returns(address) {\n        address owner = _tokenOwner[_tokenId];\n        require(owner != address(0), 'Query for non-existent owner');\n\n        return owner;\n    }\n\n    function _exists(uint256 tokenId) internal view returns(bool) {\n        // setting the address of token owner to check the mapping\n        // of the address from tokenOwner at the tokenId\n        address owner = _tokenOwner[tokenId];\n        // return if address is not zero\n        return owner != address(0);\n    }\n\n    function _mint(address to, uint256 tokenId) internal virtual {\n        // require that the address isn't zero\n        require(to != address(0), 'ERC721: minting to the zero address');\n        // require that the token does not already exists\n        require(!_exists(tokenId), 'ERC721: token already minted');\n\n        // adding a new address with a token id for minting\n        _tokenOwner[tokenId] = to;\n\n        // keeping track of each address that is minting and adding one to the account\n        _ownedTokens[to] += NEW_TOKEN;\n\n        emit Transfer(address(0), to, tokenId);\n    }\n\n    /// @notice Transfer ownership of an NFT\n    /// @dev Throws unless `msg.sender` is the current owner, an authorized\n    ///  operator, or the approved address for this NFT. Throws if `_from` is\n    ///  not the current owner. Throws if `_to` is the zero address. Throws if\n    ///  `_tokenId` is not a valid NFT.\n    /// @param _from The current owner of the NFT\n    /// @param _to The new owner\n    /// @param _tokenId The NFT to transfer\n    function _transferFrom(address _from, address _to, uint256 _tokenId) internal {\n        require(_to != address(0), 'Address can not be 0');\n        require(ownerOf(_tokenId) == _from, 'Address does not own the token');\n\n        // 1. add the token id to the address receiving the token\n        // 2. update the balance of the address from token\n        // 3. update the balance of the address too\n        // 4. add the safe functionality:\n        //      a. require that the address receiving a token is not a zero address\n        //      b. require the address transfering the token actually owns the token\n\n        _ownedTokens[_from] -= NEW_TOKEN;\n        _ownedTokens[_to] += NEW_TOKEN;\n\n        //transfer - set owner to the new address\n        _tokenOwner[_tokenId] = _to;\n\n        emit Transfer(_from, _to, _tokenId);\n    }\n\n    function transferFrom(address _from, address _to, uint256 _tokenId) public {\n        _transferFrom(_from, _to, _tokenId);\n    }\n}",
  "sourcePath": "/Users/n.timisela/projects/trials/nft-marketplace/src/contracts/ERC721.sol",
  "compiler": {
    "name": "solc",
    "version": "0.8.12+commit.f00d7308.Emscripten.clang"
  },
  "schemaVersion": "3.3.4",
  "updatedAt": "2022-02-19T15:27:51.203Z",
  "devdoc": {
    "kind": "dev",
    "methods": {
      "balanceOf(address)": {
        "details": "NFTs assigned to the zero address are considered invalid, and this  function throws for queries about the zero address.",
        "params": {
          "_owner": "An address for whom to query the balance"
        },
        "returns": {
          "_0": "The number of NFTs owned by `_owner`, possibly"
        }
      },
      "ownerOf(uint256)": {
        "details": "NFTs assigned to zero address are considered invalid, and queries  about them do throw.",
        "params": {
          "_tokenId": "The identifier for an NFT"
        },
        "returns": {
          "_0": "The address of the owner of the NFT"
        }
      }
    },
    "version": 1
  },
  "userdoc": {
    "kind": "user",
    "methods": {
      "balanceOf(address)": {
        "notice": "Count all NFTs assigned to an owner"
      },
      "ownerOf(uint256)": {
        "notice": "Find the owner of an NFT"
      }
    },
    "version": 1
  }
}