{
  "contractName": "ERC721Connector",
  "abi": [
    {
      "inputs": [
        {
          "internalType": "string",
          "name": "name",
          "type": "string"
        },
        {
          "internalType": "string",
          "name": "symbol",
          "type": "string"
        }
      ],
      "stateMutability": "nonpayable",
      "type": "constructor"
    },
    {
      "anonymous": false,
      "inputs": [
        {
          "indexed": false,
          "internalType": "address",
          "name": "from",
          "type": "address"
        },
        {
          "indexed": false,
          "internalType": "address",
          "name": "to",
          "type": "address"
        },
        {
          "indexed": false,
          "internalType": "uint256",
          "name": "tokenId",
          "type": "uint256"
        }
      ],
      "name": "Transfer",
      "type": "event"
    },
    {
      "inputs": [
        {
          "internalType": "address",
          "name": "_owner",
          "type": "address"
        }
      ],
      "name": "balanceOf",
      "outputs": [
        {
          "internalType": "uint256",
          "name": "",
          "type": "uint256"
        }
      ],
      "stateMutability": "view",
      "type": "function"
    },
    {
      "inputs": [],
      "name": "getName",
      "outputs": [
        {
          "internalType": "string",
          "name": "",
          "type": "string"
        }
      ],
      "stateMutability": "view",
      "type": "function"
    },
    {
      "inputs": [],
      "name": "getSymbol",
      "outputs": [
        {
          "internalType": "string",
          "name": "",
          "type": "string"
        }
      ],
      "stateMutability": "view",
      "type": "function"
    },
    {
      "inputs": [
        {
          "internalType": "uint256",
          "name": "_tokenId",
          "type": "uint256"
        }
      ],
      "name": "ownerOf",
      "outputs": [
        {
          "internalType": "address",
          "name": "",
          "type": "address"
        }
      ],
      "stateMutability": "view",
      "type": "function"
    },
    {
      "inputs": [
        {
          "internalType": "uint256",
          "name": "index",
          "type": "uint256"
        }
      ],
      "name": "tokenByIndex",
      "outputs": [
        {
          "internalType": "uint256",
          "name": "",
          "type": "uint256"
        }
      ],
      "stateMutability": "view",
      "type": "function"
    },
    {
      "inputs": [
        {
          "internalType": "address",
          "name": "owner",
          "type": "address"
        },
        {
          "internalType": "uint256",
          "name": "index",
          "type": "uint256"
        }
      ],
      "name": "tokenOfOwnerByIndex",
      "outputs": [
        {
          "internalType": "uint256",
          "name": "",
          "type": "uint256"
        }
      ],
      "stateMutability": "view",
      "type": "function"
    },
    {
      "inputs": [],
      "name": "totalSupply",
      "outputs": [
        {
          "internalType": "uint256",
          "name": "",
          "type": "uint256"
        }
      ],
      "stateMutability": "view",
      "type": "function"
    }
  ],
  "bytecode": "0x608060405234801561001057600080fd5b5060405161078438038061078483398101604081905261002f916101bf565b815182908290610046906000906020850190610064565b50805161005a906001906020840190610064565b505050505061025d565b82805461007090610222565b90600052602060002090601f01602090048101928261009257600085556100d8565b82601f106100ab57805160ff19168380011785556100d8565b828001600101855582156100d8579182015b828111156100d85782518255916020019190600101906100bd565b506100e49291506100e8565b5090565b5b808211156100e457600081556001016100e9565b634e487b7160e01b600052604160045260246000fd5b600082601f83011261012457600080fd5b81516001600160401b038082111561013e5761013e6100fd565b604051601f8301601f19908116603f01168101908282118183101715610166576101666100fd565b8160405283815260209250868385880101111561018257600080fd5b600091505b838210156101a45785820183015181830184015290820190610187565b838211156101b55760008385830101525b9695505050505050565b600080604083850312156101d257600080fd5b82516001600160401b03808211156101e957600080fd5b6101f586838701610113565b9350602085015191508082111561020b57600080fd5b5061021885828601610113565b9150509250929050565b600181811c9082168061023657607f821691505b6020821081141561025757634e487b7160e01b600052602260045260246000fd5b50919050565b6105188061026c6000396000f3fe608060405234801561001057600080fd5b506004361061007d5760003560e01c80632f745c591161005b5780632f745c59146100ba5780634f6ccce7146100cd5780636352211e146100e057806370a082311461010b57600080fd5b8063150704011461008257806317d7de7c146100a057806318160ddd146100a8575b600080fd5b61008a61011e565b60405161009791906103bb565b60405180910390f35b61008a6101b0565b6004545b604051908152602001610097565b6100ac6100c836600461042c565b6101bf565b6100ac6100db366004610456565b61025a565b6100f36100ee366004610456565b6102d1565b6040516001600160a01b039091168152602001610097565b6100ac61011936600461046f565b61033c565b60606001805461012d90610491565b80601f016020809104026020016040519081016040528092919081815260200182805461015990610491565b80156101a65780601f1061017b576101008083540402835291602001916101a6565b820191906000526020600020905b81548152906001019060200180831161018957829003601f168201915b5050505050905090565b60606000805461012d90610491565b60006101ca8361033c565b821061021d5760405162461bcd60e51b815260206004820152601c60248201527f6f776e657220696e646578206973206f7574206f6620626f756e64730000000060448201526064015b60405180910390fd5b6001600160a01b0383166000908152600660205260409020805483908110610247576102476104cc565b9060005260206000200154905092915050565b600061026560045490565b82106102ac5760405162461bcd60e51b8152602060048201526016602482015275696e646578206973206f7574206f6620626f756e647360501b6044820152606401610214565b600482815481106102bf576102bf6104cc565b90600052602060002001549050919050565b6000818152600260205260408120546001600160a01b0316806103365760405162461bcd60e51b815260206004820152601c60248201527f517565727920666f72206e6f6e2d6578697374656e74206f776e6572000000006044820152606401610214565b92915050565b60006001600160a01b03821661039f5760405162461bcd60e51b815260206004820152602260248201527f4f776e657220717565727920666f72206e6f6e2d6578697374656e7420746f6b60448201526132b760f11b6064820152608401610214565b506001600160a01b031660009081526003602052604090205490565b600060208083528351808285015260005b818110156103e8578581018301518582016040015282016103cc565b818111156103fa576000604083870101525b50601f01601f1916929092016040019392505050565b80356001600160a01b038116811461042757600080fd5b919050565b6000806040838503121561043f57600080fd5b61044883610410565b946020939093013593505050565b60006020828403121561046857600080fd5b5035919050565b60006020828403121561048157600080fd5b61048a82610410565b9392505050565b600181811c908216806104a557607f821691505b602082108114156104c657634e487b7160e01b600052602260045260246000fd5b50919050565b634e487b7160e01b600052603260045260246000fdfea26469706673582212206bc3b3b7ffedd5531edca59fee6e54a926d14396faf9fccbe2c50756f956510764736f6c634300080c0033",
  "immutableReferences": {},
  "source": "// SPDX-License-Identifier: MIT\n\npragma solidity ^0.8.0;\n\nimport './ERC721Metadata.sol';\nimport './ERC721Enumerable.sol';\n\ncontract ERC721Connector is ERC721Metadata, ERC721Enumerable {\n    // We deploy connector right away\n    // we want to carry the metadata info over\n    constructor(string memory name, string memory symbol) ERC721Metadata(name, symbol) {\n\n    }\n}",
  "sourcePath": "/Users/n.timisela/projects/trials/nft-marketplace/src/contracts/ERC721Connector.sol",
  "compiler": {
    "name": "solc",
    "version": "0.8.12+commit.f00d7308.Emscripten.clang"
  },
  "schemaVersion": "3.3.4",
  "updatedAt": "2022-02-19T13:58:43.945Z",
  "devdoc": {
    "kind": "dev",
    "methods": {
      "balanceOf(address)": {
        "details": "NFTs assigned to the zero address are considered invalid, and this  function throws for queries about the zero address.",
        "params": {
          "_owner": "An address for whom to query the balance"
        },
        "returns": {
          "_0": "The number of NFTs owned by `_owner`, possibly "
        }
      },
      "ownerOf(uint256)": {
        "details": "NFTs assigned to zero address are considered invalid, and queries  about them do throw.",
        "params": {
          "_tokenId": "The identifier for an NFT"
        },
        "returns": {
          "_0": "The address of the owner of the NFT"
        }
      }
    },
    "version": 1
  },
  "userdoc": {
    "kind": "user",
    "methods": {
      "balanceOf(address)": {
        "notice": "Count all NFTs assigned to an owner"
      },
      "ownerOf(uint256)": {
        "notice": "Find the owner of an NFT"
      }
    },
    "version": 1
  }
}