{
  "contractName": "KryptoBird",
  "abi": [
    {
      "inputs": [],
      "stateMutability": "nonpayable",
      "type": "constructor"
    },
    {
      "anonymous": false,
      "inputs": [
        {
          "indexed": false,
          "internalType": "address",
          "name": "from",
          "type": "address"
        },
        {
          "indexed": false,
          "internalType": "address",
          "name": "to",
          "type": "address"
        },
        {
          "indexed": false,
          "internalType": "uint256",
          "name": "tokenId",
          "type": "uint256"
        }
      ],
      "name": "Transfer",
      "type": "event"
    },
    {
      "inputs": [
        {
          "internalType": "address",
          "name": "_owner",
          "type": "address"
        }
      ],
      "name": "balanceOf",
      "outputs": [
        {
          "internalType": "uint256",
          "name": "",
          "type": "uint256"
        }
      ],
      "stateMutability": "view",
      "type": "function",
      "constant": true
    },
    {
      "inputs": [],
      "name": "getName",
      "outputs": [
        {
          "internalType": "string",
          "name": "",
          "type": "string"
        }
      ],
      "stateMutability": "view",
      "type": "function",
      "constant": true
    },
    {
      "inputs": [],
      "name": "getSymbol",
      "outputs": [
        {
          "internalType": "string",
          "name": "",
          "type": "string"
        }
      ],
      "stateMutability": "view",
      "type": "function",
      "constant": true
    },
    {
      "inputs": [
        {
          "internalType": "uint256",
          "name": "",
          "type": "uint256"
        }
      ],
      "name": "kryptoBirdz",
      "outputs": [
        {
          "internalType": "string",
          "name": "",
          "type": "string"
        }
      ],
      "stateMutability": "view",
      "type": "function",
      "constant": true
    },
    {
      "inputs": [
        {
          "internalType": "uint256",
          "name": "_tokenId",
          "type": "uint256"
        }
      ],
      "name": "ownerOf",
      "outputs": [
        {
          "internalType": "address",
          "name": "",
          "type": "address"
        }
      ],
      "stateMutability": "view",
      "type": "function",
      "constant": true
    },
    {
      "inputs": [
        {
          "internalType": "uint256",
          "name": "index",
          "type": "uint256"
        }
      ],
      "name": "tokenByIndex",
      "outputs": [
        {
          "internalType": "uint256",
          "name": "",
          "type": "uint256"
        }
      ],
      "stateMutability": "view",
      "type": "function",
      "constant": true
    },
    {
      "inputs": [
        {
          "internalType": "address",
          "name": "owner",
          "type": "address"
        },
        {
          "internalType": "uint256",
          "name": "index",
          "type": "uint256"
        }
      ],
      "name": "tokenOfOwnerByIndex",
      "outputs": [
        {
          "internalType": "uint256",
          "name": "",
          "type": "uint256"
        }
      ],
      "stateMutability": "view",
      "type": "function",
      "constant": true
    },
    {
      "inputs": [],
      "name": "totalSupply",
      "outputs": [
        {
          "internalType": "uint256",
          "name": "",
          "type": "uint256"
        }
      ],
      "stateMutability": "view",
      "type": "function",
      "constant": true
    },
    {
      "inputs": [
        {
          "internalType": "string",
          "name": "_kryptoBird",
          "type": "string"
        }
      ],
      "name": "mint",
      "outputs": [],
      "stateMutability": "nonpayable",
      "type": "function"
    }
  ],
  "bytecode": "0x6080604052600160085534801561001557600080fd5b50604080518082018252600a81526912dc9e5c1d1bd89a5c9960b21b60208083019182528351808501909452600684526525a124a9222d60d11b9084015281519192918391839161006891600091610086565b50805161007c906001906020840190610086565b505050505061015a565b8280546100929061011f565b90600052602060002090601f0160209004810192826100b457600085556100fa565b82601f106100cd57805160ff19168380011785556100fa565b828001600101855582156100fa579182015b828111156100fa5782518255916020019190600101906100df565b5061010692915061010a565b5090565b5b80821115610106576000815560010161010b565b600181811c9082168061013357607f821691505b6020821081141561015457634e487b7160e01b600052602260045260246000fd5b50919050565b610ad5806101696000396000f3fe608060405234801561001057600080fd5b50600436106100935760003560e01c80634f6ccce7116100665780634f6ccce7146100e35780636352211e146100f657806370a082311461012157806393ab6e5614610134578063d85d3d271461014757600080fd5b8063150704011461009857806317d7de7c146100b657806318160ddd146100be5780632f745c59146100d0575b600080fd5b6100a061015c565b6040516100ad9190610872565b60405180910390f35b6100a06101ee565b6004545b6040519081526020016100ad565b6100c26100de3660046108c1565b6101fd565b6100c26100f13660046108eb565b610298565b6101096101043660046108eb565b61030f565b6040516001600160a01b0390911681526020016100ad565b6100c261012f366004610904565b61037a565b6100a06101423660046108eb565b6103f9565b61015a61015536600461093c565b6104a5565b005b60606001805461016b906109ed565b80601f0160208091040260200160405190810160405280929190818152602001828054610197906109ed565b80156101e45780601f106101b9576101008083540402835291602001916101e4565b820191906000526020600020905b8154815290600101906020018083116101c757829003601f168201915b5050505050905090565b60606000805461016b906109ed565b60006102088361037a565b821061025b5760405162461bcd60e51b815260206004820152601c60248201527f6f776e657220696e646578206973206f7574206f6620626f756e64730000000060448201526064015b60405180910390fd5b6001600160a01b038316600090815260066020526040902080548390811061028557610285610a28565b9060005260206000200154905092915050565b60006102a360045490565b82106102ea5760405162461bcd60e51b8152602060048201526016602482015275696e646578206973206f7574206f6620626f756e647360501b6044820152606401610252565b600482815481106102fd576102fd610a28565b90600052602060002001549050919050565b6000818152600260205260408120546001600160a01b0316806103745760405162461bcd60e51b815260206004820152601c60248201527f517565727920666f72206e6f6e2d6578697374656e74206f776e6572000000006044820152606401610252565b92915050565b60006001600160a01b0382166103dd5760405162461bcd60e51b815260206004820152602260248201527f4f776e657220717565727920666f72206e6f6e2d6578697374656e7420746f6b60448201526132b760f11b6064820152608401610252565b506001600160a01b031660009081526003602052604090205490565b6009818154811061040957600080fd5b906000526020600020016000915090508054610424906109ed565b80601f0160208091040260200160405190810160405280929190818152602001828054610450906109ed565b801561049d5780601f106104725761010080835404028352916020019161049d565b820191906000526020600020905b81548152906001019060200180831161048057829003601f168201915b505050505081565b600a816040516104b59190610a3e565b9081526040519081900360200190205460ff161561051f5760405162461bcd60e51b815260206004820152602160248201527f6572726f72202d204b727970746f4269726420616c72656164792065786973746044820152607360f81b6064820152608401610252565b600980546001810182556000919091528151610562917f6e1540171b6c0c960b71a7020d9f60077f6af931a8bbf590da0223dacf75c7af019060208401906107a9565b5060085460095460009161057591610a70565b905061058133826105b7565b6001600a836040516105939190610a3e565b908152604051908190036020019020805491151560ff199092169190911790555050565b6105c18282610648565b61060981600480546000838152600560205260408120829055600182018355919091527f8a35acfbc15ff81a39ae7d344fd709f28e8600b4aa8c65c6b64bfe7fe36bd19b0155565b6001600160a01b039190911660009081526006602081815260408084208054868652600784529185208290559282526001810183559183529091200155565b6001600160a01b0382166106aa5760405162461bcd60e51b815260206004820152602360248201527f4552433732313a206d696e74696e6720746f20746865207a65726f206164647260448201526265737360e81b6064820152608401610252565b6000818152600260205260409020546001600160a01b03161561070f5760405162461bcd60e51b815260206004820152601c60248201527f4552433732313a20746f6b656e20616c7265616479206d696e746564000000006044820152606401610252565b600081815260026020908152604080832080546001600160a01b0319166001600160a01b038716908117909155835260039091528120805460019290610756908490610a87565b909155505060408051600081526001600160a01b03841660208201529081018290527fddf252ad1be2c89b69c2b068fc378daa952ba7f163c4a11628f55a4df523b3ef9060600160405180910390a15050565b8280546107b5906109ed565b90600052602060002090601f0160209004810192826107d7576000855561081d565b82601f106107f057805160ff191683800117855561081d565b8280016001018555821561081d579182015b8281111561081d578251825591602001919060010190610802565b5061082992915061082d565b5090565b5b80821115610829576000815560010161082e565b60005b8381101561085d578181015183820152602001610845565b8381111561086c576000848401525b50505050565b6020815260008251806020840152610891816040850160208701610842565b601f01601f19169190910160400192915050565b80356001600160a01b03811681146108bc57600080fd5b919050565b600080604083850312156108d457600080fd5b6108dd836108a5565b946020939093013593505050565b6000602082840312156108fd57600080fd5b5035919050565b60006020828403121561091657600080fd5b61091f826108a5565b9392505050565b634e487b7160e01b600052604160045260246000fd5b60006020828403121561094e57600080fd5b813567ffffffffffffffff8082111561096657600080fd5b818401915084601f83011261097a57600080fd5b81358181111561098c5761098c610926565b604051601f8201601f19908116603f011681019083821181831017156109b4576109b4610926565b816040528281528760208487010111156109cd57600080fd5b826020860160208301376000928101602001929092525095945050505050565b600181811c90821680610a0157607f821691505b60208210811415610a2257634e487b7160e01b600052602260045260246000fd5b50919050565b634e487b7160e01b600052603260045260246000fd5b60008251610a50818460208701610842565b9190910192915050565b634e487b7160e01b600052601160045260246000fd5b600082821015610a8257610a82610a5a565b500390565b60008219821115610a9a57610a9a610a5a565b50019056fea2646970667358221220f81db3b989e6f0c48c97516497b67d61428bd9264b7bad296858dc2fe5ca335b64736f6c634300080c0033",
  "immutableReferences": {},
  "source": "// SPDX-License-Identifier: MIT\npragma solidity ^0.8.0;\n\nimport './ERC721Connector.sol';\n\ncontract KryptoBird is ERC721Connector {\n    uint MINTED_TOKEN = 1;\n\n    // Array to store NFT's in\n    string[] public kryptoBirdz;\n\n    // check if token with the given ID already exists\n    mapping(string => bool) _kryptoBirdzExists;\n\n    // Initialize the contract to inherit name and symbol\n    // from the ERC721Metadata contract\n    // so that the name is KryptoBird and the symbol is KBIRDZ\n    constructor() ERC721Connector('Kryptobird', 'KBIRDZ') {\n\n    }\n\n    function mint(string memory _kryptoBird) public {\n        // Within the mapping: check if the kryptoBird of the current input, doesn't exist\n        require(!_kryptoBirdzExists[_kryptoBird], 'error - KryptoBird already exists');\n\n        // push each minted kryptobird into the kryptoBirdz array\n        kryptoBirdz.push(_kryptoBird);\n\n        // remove the minted token from the array\n        uint _id = kryptoBirdz.length - MINTED_TOKEN;\n\n        // the contract caller who mints gets a token with an ID\n        _mint(msg.sender, _id);\n\n        // get the given [KryptoBird] from the mapping and set its value to true\n        _kryptoBirdzExists[_kryptoBird] = true;\n    }\n}",
  "sourcePath": "/Users/n.timisela/projects/trials/nft-marketplace/src/contracts/KryptoBirdz.sol",
  "compiler": {
    "name": "solc",
    "version": "0.8.12+commit.f00d7308.Emscripten.clang"
  },
  "schemaVersion": "3.3.4",
  "updatedAt": "2022-02-19T13:58:57.785Z",
  "networkType": "ethereum",
  "devdoc": {
    "kind": "dev",
    "methods": {
      "balanceOf(address)": {
        "details": "NFTs assigned to the zero address are considered invalid, and this  function throws for queries about the zero address.",
        "params": {
          "_owner": "An address for whom to query the balance"
        },
        "returns": {
          "_0": "The number of NFTs owned by `_owner`, possibly "
        }
      },
      "ownerOf(uint256)": {
        "details": "NFTs assigned to zero address are considered invalid, and queries  about them do throw.",
        "params": {
          "_tokenId": "The identifier for an NFT"
        },
        "returns": {
          "_0": "The address of the owner of the NFT"
        }
      }
    },
    "version": 1
  },
  "userdoc": {
    "kind": "user",
    "methods": {
      "balanceOf(address)": {
        "notice": "Count all NFTs assigned to an owner"
      },
      "ownerOf(uint256)": {
        "notice": "Find the owner of an NFT"
      }
    },
    "version": 1
  }
}