{
  "contractName": "KryptoBird",
  "abi": [
    {
      "inputs": [],
      "stateMutability": "nonpayable",
      "type": "constructor"
    },
    {
      "anonymous": false,
      "inputs": [
        {
          "indexed": false,
          "internalType": "address",
          "name": "from",
          "type": "address"
        },
        {
          "indexed": false,
          "internalType": "address",
          "name": "to",
          "type": "address"
        },
        {
          "indexed": false,
          "internalType": "uint256",
          "name": "tokenId",
          "type": "uint256"
        }
      ],
      "name": "Transfer",
      "type": "event"
    },
    {
      "inputs": [
        {
          "internalType": "address",
          "name": "_owner",
          "type": "address"
        }
      ],
      "name": "balanceOf",
      "outputs": [
        {
          "internalType": "uint256",
          "name": "",
          "type": "uint256"
        }
      ],
      "stateMutability": "view",
      "type": "function",
      "constant": true
    },
    {
      "inputs": [],
      "name": "getName",
      "outputs": [
        {
          "internalType": "string",
          "name": "",
          "type": "string"
        }
      ],
      "stateMutability": "view",
      "type": "function",
      "constant": true
    },
    {
      "inputs": [],
      "name": "getSymbol",
      "outputs": [
        {
          "internalType": "string",
          "name": "",
          "type": "string"
        }
      ],
      "stateMutability": "view",
      "type": "function",
      "constant": true
    },
    {
      "inputs": [
        {
          "internalType": "uint256",
          "name": "",
          "type": "uint256"
        }
      ],
      "name": "kryptoBirdz",
      "outputs": [
        {
          "internalType": "string",
          "name": "",
          "type": "string"
        }
      ],
      "stateMutability": "view",
      "type": "function",
      "constant": true
    },
    {
      "inputs": [
        {
          "internalType": "uint256",
          "name": "_tokenId",
          "type": "uint256"
        }
      ],
      "name": "ownerOf",
      "outputs": [
        {
          "internalType": "address",
          "name": "",
          "type": "address"
        }
      ],
      "stateMutability": "view",
      "type": "function",
      "constant": true
    },
    {
      "inputs": [
        {
          "internalType": "string",
          "name": "_kryptoBird",
          "type": "string"
        }
      ],
      "name": "mint",
      "outputs": [],
      "stateMutability": "nonpayable",
      "type": "function"
    }
  ],
  "bytecode": "0x6080604052600160045534801561001557600080fd5b50604080518082018252600a81526912dc9e5c1d1bd89a5c9960b21b60208083019182528351808501909452600684526525a124a9222d60d11b9084015281519192918391839161006891600291610086565b50805161007c906003906020840190610086565b505050505061015a565b8280546100929061011f565b90600052602060002090601f0160209004810192826100b457600085556100fa565b82601f106100cd57805160ff19168380011785556100fa565b828001600101855582156100fa579182015b828111156100fa5782518255916020019190600101906100df565b5061010692915061010a565b5090565b5b80821115610106576000815560010161010b565b600181811c9082168061013357607f821691505b6020821081141561015457634e487b7160e01b600052602260045260246000fd5b50919050565b61088d806101696000396000f3fe608060405234801561001057600080fd5b50600436106100625760003560e01c8063150704011461006757806317d7de7c146100855780636352211e1461008d57806370a08231146100b857806393ab6e56146100d9578063d85d3d27146100ec575b600080fd5b61006f610101565b60405161007c9190610678565b60405180910390f35b61006f610193565b6100a061009b3660046106ab565b6101a2565b6040516001600160a01b03909116815260200161007c565b6100cb6100c63660046106c4565b610212565b60405190815260200161007c565b61006f6100e73660046106ab565b610291565b6100ff6100fa36600461070a565b61033d565b005b606060038054610110906107bb565b80601f016020809104026020016040519081016040528092919081815260200182805461013c906107bb565b80156101895780601f1061015e57610100808354040283529160200191610189565b820191906000526020600020905b81548152906001019060200180831161016c57829003601f168201915b5050505050905090565b606060028054610110906107bb565b6000818152602081905260408120546001600160a01b03168061020c5760405162461bcd60e51b815260206004820152601c60248201527f517565727920666f72206e6f6e2d6578697374656e74206f776e65720000000060448201526064015b60405180910390fd5b92915050565b60006001600160a01b0382166102755760405162461bcd60e51b815260206004820152602260248201527f4f776e657220717565727920666f72206e6f6e2d6578697374656e7420746f6b60448201526132b760f11b6064820152608401610203565b506001600160a01b031660009081526001602052604090205490565b600581815481106102a157600080fd5b9060005260206000200160009150905080546102bc906107bb565b80601f01602080910402602001604051908101604052809291908181526020018280546102e8906107bb565b80156103355780601f1061030a57610100808354040283529160200191610335565b820191906000526020600020905b81548152906001019060200180831161031857829003601f168201915b505050505081565b60068160405161034d91906107f6565b9081526040519081900360200190205460ff16156103b75760405162461bcd60e51b815260206004820152602160248201527f6572726f72202d204b727970746f4269726420616c72656164792065786973746044820152607360f81b6064820152608401610203565b6005805460018101825560009190915281516103fa917f036b6384b5eca791c62761152d0c79bb0604c104a5fb6f4eb0703f3154bb3db0019060208401906105af565b5060045460055460009161040d91610828565b9050610419338261044f565b600160068360405161042b91906107f6565b908152604051908190036020019020805491151560ff199092169190911790555050565b6001600160a01b0382166104b15760405162461bcd60e51b815260206004820152602360248201527f4552433732313a206d696e74696e6720746f20746865207a65726f206164647260448201526265737360e81b6064820152608401610203565b6000818152602081905260409020546001600160a01b0316156105165760405162461bcd60e51b815260206004820152601c60248201527f4552433732313a20746f6b656e20616c7265616479206d696e746564000000006044820152606401610203565b60008181526020818152604080832080546001600160a01b0319166001600160a01b0387169081179091558352600191829052822080549192909161055c90849061083f565b909155505060408051600081526001600160a01b03841660208201529081018290527fddf252ad1be2c89b69c2b068fc378daa952ba7f163c4a11628f55a4df523b3ef9060600160405180910390a15050565b8280546105bb906107bb565b90600052602060002090601f0160209004810192826105dd5760008555610623565b82601f106105f657805160ff1916838001178555610623565b82800160010185558215610623579182015b82811115610623578251825591602001919060010190610608565b5061062f929150610633565b5090565b5b8082111561062f5760008155600101610634565b60005b8381101561066357818101518382015260200161064b565b83811115610672576000848401525b50505050565b6020815260008251806020840152610697816040850160208701610648565b601f01601f19169190910160400192915050565b6000602082840312156106bd57600080fd5b5035919050565b6000602082840312156106d657600080fd5b81356001600160a01b03811681146106ed57600080fd5b9392505050565b634e487b7160e01b600052604160045260246000fd5b60006020828403121561071c57600080fd5b813567ffffffffffffffff8082111561073457600080fd5b818401915084601f83011261074857600080fd5b81358181111561075a5761075a6106f4565b604051601f8201601f19908116603f01168101908382118183101715610782576107826106f4565b8160405282815287602084870101111561079b57600080fd5b826020860160208301376000928101602001929092525095945050505050565b600181811c908216806107cf57607f821691505b602082108114156107f057634e487b7160e01b600052602260045260246000fd5b50919050565b60008251610808818460208701610648565b9190910192915050565b634e487b7160e01b600052601160045260246000fd5b60008282101561083a5761083a610812565b500390565b6000821982111561085257610852610812565b50019056fea2646970667358221220d2666af2ebf5258bede8f6a33fd54d187bbddc0f0699b41c358b9d7bb5cb430364736f6c634300080b0033",
  "immutableReferences": {},
  "source": "// SPDX-License-Identifier: MIT\npragma solidity ^0.8.0;\n\nimport './ERC721Connector.sol';\n\ncontract KryptoBird is ERC721Connector {\n    uint MINTED_TOKEN = 1;\n\n    // Array to store NFT's in\n    string[] public kryptoBirdz;\n\n    // check if token with the given ID already exists\n    mapping(string => bool) _kryptoBirdzExists;\n\n    // Initialize the contract to inherit name and symbol\n    // from the ERC721Metadata contract\n    // so that the name is KryptoBird and the symbol is KBIRDZ\n    constructor() ERC721Connector('Kryptobird', 'KBIRDZ') {\n\n    }\n\n    function mint(string memory _kryptoBird) public {\n        // Within the mapping: check if the kryptoBird of the current input, doesn't exist\n        require(!_kryptoBirdzExists[_kryptoBird], 'error - KryptoBird already exists');\n\n        // push each minted kryptobird into the kryptoBirdz array\n        kryptoBirdz.push(_kryptoBird);\n\n        // remove the minted token from the array\n        uint _id = kryptoBirdz.length - MINTED_TOKEN;\n\n        // the contract caller who mints gets a token with an ID\n        _mint(msg.sender, _id);\n\n        // get the given [KryptoBird] from the mapping and set its value to true\n        _kryptoBirdzExists[_kryptoBird] = true;\n    }\n}",
  "sourcePath": "/Users/n.timisela/projects/trials/nft-marketplace/src/contracts/KryptoBirdz.sol",
  "compiler": {
    "name": "solc",
    "version": "0.8.11+commit.d7f03943.Emscripten.clang"
  },
  "schemaVersion": "3.3.4",
  "updatedAt": "2022-02-12T13:10:34.777Z",
  "networkType": "ethereum",
  "devdoc": {
    "kind": "dev",
    "methods": {
      "balanceOf(address)": {
        "details": "NFTs assigned to the zero address are considered invalid, and this  function throws for queries about the zero address.",
        "params": {
          "_owner": "An address for whom to query the balance"
        },
        "returns": {
          "_0": "The number of NFTs owned by `_owner`, possibly "
        }
      },
      "ownerOf(uint256)": {
        "details": "NFTs assigned to zero address are considered invalid, and queries  about them do throw.",
        "params": {
          "_tokenId": "The identifier for an NFT"
        },
        "returns": {
          "_0": "The address of the owner of the NFT"
        }
      }
    },
    "version": 1
  },
  "userdoc": {
    "kind": "user",
    "methods": {
      "balanceOf(address)": {
        "notice": "Count all NFTs assigned to an owner"
      },
      "ownerOf(uint256)": {
        "notice": "Find the owner of an NFT"
      }
    },
    "version": 1
  }
}