{
  "contractName": "KryptoBird",
  "abi": [
    {
      "inputs": [],
      "stateMutability": "nonpayable",
      "type": "constructor"
    },
    {
      "anonymous": false,
      "inputs": [
        {
          "indexed": false,
          "internalType": "address",
          "name": "from",
          "type": "address"
        },
        {
          "indexed": false,
          "internalType": "address",
          "name": "to",
          "type": "address"
        },
        {
          "indexed": false,
          "internalType": "uint256",
          "name": "tokenId",
          "type": "uint256"
        }
      ],
      "name": "Transfer",
      "type": "event"
    },
    {
      "inputs": [
        {
          "internalType": "address",
          "name": "_owner",
          "type": "address"
        }
      ],
      "name": "balanceOf",
      "outputs": [
        {
          "internalType": "uint256",
          "name": "",
          "type": "uint256"
        }
      ],
      "stateMutability": "view",
      "type": "function",
      "constant": true
    },
    {
      "inputs": [],
      "name": "getName",
      "outputs": [
        {
          "internalType": "string",
          "name": "",
          "type": "string"
        }
      ],
      "stateMutability": "view",
      "type": "function",
      "constant": true
    },
    {
      "inputs": [],
      "name": "getSymbol",
      "outputs": [
        {
          "internalType": "string",
          "name": "",
          "type": "string"
        }
      ],
      "stateMutability": "view",
      "type": "function",
      "constant": true
    },
    {
      "inputs": [
        {
          "internalType": "uint256",
          "name": "",
          "type": "uint256"
        }
      ],
      "name": "kryptoBirdz",
      "outputs": [
        {
          "internalType": "string",
          "name": "",
          "type": "string"
        }
      ],
      "stateMutability": "view",
      "type": "function",
      "constant": true
    },
    {
      "inputs": [
        {
          "internalType": "uint256",
          "name": "_tokenId",
          "type": "uint256"
        }
      ],
      "name": "ownerOf",
      "outputs": [
        {
          "internalType": "address",
          "name": "",
          "type": "address"
        }
      ],
      "stateMutability": "view",
      "type": "function",
      "constant": true
    },
    {
      "inputs": [
        {
          "internalType": "uint256",
          "name": "index",
          "type": "uint256"
        }
      ],
      "name": "tokenByIndex",
      "outputs": [
        {
          "internalType": "uint256",
          "name": "",
          "type": "uint256"
        }
      ],
      "stateMutability": "view",
      "type": "function",
      "constant": true
    },
    {
      "inputs": [
        {
          "internalType": "address",
          "name": "owner",
          "type": "address"
        },
        {
          "internalType": "uint256",
          "name": "index",
          "type": "uint256"
        }
      ],
      "name": "tokenOfOwnerByIndex",
      "outputs": [
        {
          "internalType": "uint256",
          "name": "",
          "type": "uint256"
        }
      ],
      "stateMutability": "view",
      "type": "function",
      "constant": true
    },
    {
      "inputs": [],
      "name": "totalSupply",
      "outputs": [
        {
          "internalType": "uint256",
          "name": "",
          "type": "uint256"
        }
      ],
      "stateMutability": "view",
      "type": "function",
      "constant": true
    },
    {
      "inputs": [
        {
          "internalType": "address",
          "name": "_from",
          "type": "address"
        },
        {
          "internalType": "address",
          "name": "_to",
          "type": "address"
        },
        {
          "internalType": "uint256",
          "name": "_tokenId",
          "type": "uint256"
        }
      ],
      "name": "transferFrom",
      "outputs": [],
      "stateMutability": "nonpayable",
      "type": "function"
    },
    {
      "inputs": [
        {
          "internalType": "string",
          "name": "_kryptoBird",
          "type": "string"
        }
      ],
      "name": "mint",
      "outputs": [],
      "stateMutability": "nonpayable",
      "type": "function"
    }
  ],
  "bytecode": "0x608060405260016009553480156200001657600080fd5b50604080518082018252600a81526912dc9e5c1d1bd89a5c9960b21b60208083019182528351808501909452600684526525a124a9222d60d11b908401528151919291839183916200006b916000916200008c565b508051620000819060019060208401906200008c565b50505050506200016f565b8280546200009a9062000132565b90600052602060002090601f016020900481019282620000be576000855562000109565b82601f10620000d957805160ff191683800117855562000109565b8280016001018555821562000109579182015b8281111562000109578251825591602001919060010190620000ec565b50620001179291506200011b565b5090565b5b808211156200011757600081556001016200011c565b600181811c908216806200014757607f821691505b602082108114156200016957634e487b7160e01b600052602260045260246000fd5b50919050565b610cc6806200017f6000396000f3fe608060405234801561001057600080fd5b506004361061009e5760003560e01c80634f6ccce7116100665780634f6ccce7146101035780636352211e1461011657806370a082311461014157806393ab6e5614610154578063d85d3d271461016757600080fd5b806315070401146100a357806317d7de7c146100c157806318160ddd146100c957806323b872dd146100db5780632f745c59146100f0575b600080fd5b6100ab61017a565b6040516100b89190610a27565b60405180910390f35b6100ab61020c565b6005545b6040519081526020016100b8565b6100ee6100e9366004610a76565b61021b565b005b6100cd6100fe366004610ab2565b61022b565b6100cd610111366004610adc565b6102c6565b610129610124366004610adc565b61033d565b6040516001600160a01b0390911681526020016100b8565b6100cd61014f366004610af5565b6103a8565b6100ab610162366004610adc565b610427565b6100ee610175366004610b2d565b6104d3565b60606001805461018990610bde565b80601f01602080910402602001604051908101604052809291908181526020018280546101b590610bde565b80156102025780601f106101d757610100808354040283529160200191610202565b820191906000526020600020905b8154815290600101906020018083116101e557829003601f168201915b5050505050905090565b60606000805461018990610bde565b6102268383836105e5565b505050565b6000610236836103a8565b82106102895760405162461bcd60e51b815260206004820152601c60248201527f6f776e657220696e646578206973206f7574206f6620626f756e64730000000060448201526064015b60405180910390fd5b6001600160a01b03831660009081526007602052604090208054839081106102b3576102b3610c19565b9060005260206000200154905092915050565b60006102d160055490565b82106103185760405162461bcd60e51b8152602060048201526016602482015275696e646578206973206f7574206f6620626f756e647360501b6044820152606401610280565b6005828154811061032b5761032b610c19565b90600052602060002001549050919050565b6000818152600260205260408120546001600160a01b0316806103a25760405162461bcd60e51b815260206004820152601c60248201527f517565727920666f72206e6f6e2d6578697374656e74206f776e6572000000006044820152606401610280565b92915050565b60006001600160a01b03821661040b5760405162461bcd60e51b815260206004820152602260248201527f4f776e657220717565727920666f72206e6f6e2d6578697374656e7420746f6b60448201526132b760f11b6064820152608401610280565b506001600160a01b031660009081526003602052604090205490565b600a818154811061043757600080fd5b90600052602060002001600091509050805461045290610bde565b80601f016020809104026020016040519081016040528092919081815260200182805461047e90610bde565b80156104cb5780601f106104a0576101008083540402835291602001916104cb565b820191906000526020600020905b8154815290600101906020018083116104ae57829003601f168201915b505050505081565b600b816040516104e39190610c2f565b9081526040519081900360200190205460ff161561054d5760405162461bcd60e51b815260206004820152602160248201527f6572726f72202d204b727970746f4269726420616c72656164792065786973746044820152607360f81b6064820152608401610280565b600a80546001810182556000919091528151610590917fc65a7bb8d6351c1cf70c95a316cc6a92839c986682d98bc35f958f4883f9d2a80190602084019061095e565b50600954600a546000916105a391610c61565b90506105af338261076c565b6001600b836040516105c19190610c2f565b908152604051908190036020019020805491151560ff199092169190911790555050565b6001600160a01b0382166106325760405162461bcd60e51b81526020600482015260146024820152730416464726573732063616e206e6f7420626520360641b6044820152606401610280565b826001600160a01b03166106458261033d565b6001600160a01b03161461069b5760405162461bcd60e51b815260206004820152601e60248201527f4164647265737320646f6573206e6f74206f776e2074686520746f6b656e00006044820152606401610280565b6001600160a01b03831660009081526003602052604081208054600192906106c4908490610c61565b90915550506001600160a01b03821660009081526003602052604081208054600192906106f2908490610c78565b909155505060008181526002602090815260409182902080546001600160a01b0319166001600160a01b0386811691821790925583519187168252918101919091529081018290527fddf252ad1be2c89b69c2b068fc378daa952ba7f163c4a11628f55a4df523b3ef9060600160405180910390a1505050565b61077682826107fd565b6107be81600580546000838152600660205260408120829055600182018355919091527f036b6384b5eca791c62761152d0c79bb0604c104a5fb6f4eb0703f3154bb3db00155565b6001600160a01b039190911660009081526007602081815260408084208054868652600884529185208290559282526001810183559183529091200155565b6001600160a01b03821661085f5760405162461bcd60e51b815260206004820152602360248201527f4552433732313a206d696e74696e6720746f20746865207a65726f206164647260448201526265737360e81b6064820152608401610280565b6000818152600260205260409020546001600160a01b0316156108c45760405162461bcd60e51b815260206004820152601c60248201527f4552433732313a20746f6b656e20616c7265616479206d696e746564000000006044820152606401610280565b600081815260026020908152604080832080546001600160a01b0319166001600160a01b03871690811790915583526003909152812080546001929061090b908490610c78565b909155505060408051600081526001600160a01b03841660208201529081018290527fddf252ad1be2c89b69c2b068fc378daa952ba7f163c4a11628f55a4df523b3ef9060600160405180910390a15050565b82805461096a90610bde565b90600052602060002090601f01602090048101928261098c57600085556109d2565b82601f106109a557805160ff19168380011785556109d2565b828001600101855582156109d2579182015b828111156109d25782518255916020019190600101906109b7565b506109de9291506109e2565b5090565b5b808211156109de57600081556001016109e3565b60005b83811015610a125781810151838201526020016109fa565b83811115610a21576000848401525b50505050565b6020815260008251806020840152610a468160408501602087016109f7565b601f01601f19169190910160400192915050565b80356001600160a01b0381168114610a7157600080fd5b919050565b600080600060608486031215610a8b57600080fd5b610a9484610a5a565b9250610aa260208501610a5a565b9150604084013590509250925092565b60008060408385031215610ac557600080fd5b610ace83610a5a565b946020939093013593505050565b600060208284031215610aee57600080fd5b5035919050565b600060208284031215610b0757600080fd5b610b1082610a5a565b9392505050565b634e487b7160e01b600052604160045260246000fd5b600060208284031215610b3f57600080fd5b813567ffffffffffffffff80821115610b5757600080fd5b818401915084601f830112610b6b57600080fd5b813581811115610b7d57610b7d610b17565b604051601f8201601f19908116603f01168101908382118183101715610ba557610ba5610b17565b81604052828152876020848701011115610bbe57600080fd5b826020860160208301376000928101602001929092525095945050505050565b600181811c90821680610bf257607f821691505b60208210811415610c1357634e487b7160e01b600052602260045260246000fd5b50919050565b634e487b7160e01b600052603260045260246000fd5b60008251610c418184602087016109f7565b9190910192915050565b634e487b7160e01b600052601160045260246000fd5b600082821015610c7357610c73610c4b565b500390565b60008219821115610c8b57610c8b610c4b565b50019056fea264697066735822122044d28237c7adb8aeed092086a8866ceba053f84f63e117406f03821681b6fdf064736f6c634300080c0033",
  "immutableReferences": {},
  "source": "// SPDX-License-Identifier: MIT\npragma solidity ^0.8.0;\n\nimport './ERC721Connector.sol';\n\ncontract KryptoBird is ERC721Connector {\n    uint MINTED_TOKEN = 1;\n\n    // Array to store NFT's in\n    string[] public kryptoBirdz;\n\n    // check if token with the given ID already exists\n    mapping(string => bool) _kryptoBirdzExists;\n\n    // Initialize the contract to inherit name and symbol\n    // from the ERC721Metadata contract\n    // so that the name is KryptoBird and the symbol is KBIRDZ\n    constructor() ERC721Connector('Kryptobird', 'KBIRDZ') {\n\n    }\n\n    function mint(string memory _kryptoBird) public {\n        // Within the mapping: check if the kryptoBird of the current input, doesn't exist\n        require(!_kryptoBirdzExists[_kryptoBird], 'error - KryptoBird already exists');\n\n        // push each minted kryptobird into the kryptoBirdz array\n        kryptoBirdz.push(_kryptoBird);\n\n        // remove the minted token from the array\n        uint _id = kryptoBirdz.length - MINTED_TOKEN;\n\n        // the contract caller who mints gets a token with an ID\n        _mint(msg.sender, _id);\n\n        // get the given [KryptoBird] from the mapping and set its value to true\n        _kryptoBirdzExists[_kryptoBird] = true;\n    }\n}",
  "sourcePath": "/Users/n.timisela/projects/trials/nft-marketplace/src/contracts/KryptoBirdz.sol",
  "compiler": {
    "name": "solc",
    "version": "0.8.12+commit.f00d7308.Emscripten.clang"
  },
  "schemaVersion": "3.3.4",
  "updatedAt": "2022-02-19T15:28:09.247Z",
  "networkType": "ethereum",
  "devdoc": {
    "kind": "dev",
    "methods": {
      "balanceOf(address)": {
        "details": "NFTs assigned to the zero address are considered invalid, and this  function throws for queries about the zero address.",
        "params": {
          "_owner": "An address for whom to query the balance"
        },
        "returns": {
          "_0": "The number of NFTs owned by `_owner`, possibly"
        }
      },
      "ownerOf(uint256)": {
        "details": "NFTs assigned to zero address are considered invalid, and queries  about them do throw.",
        "params": {
          "_tokenId": "The identifier for an NFT"
        },
        "returns": {
          "_0": "The address of the owner of the NFT"
        }
      }
    },
    "version": 1
  },
  "userdoc": {
    "kind": "user",
    "methods": {
      "balanceOf(address)": {
        "notice": "Count all NFTs assigned to an owner"
      },
      "ownerOf(uint256)": {
        "notice": "Find the owner of an NFT"
      }
    },
    "version": 1
  }
}